{
  "address": "0xaf55E60602765CD709f7fA63EA9D31CDCD8F5763",
  "abi": [
    {
      "inputs": [
        {
          "internalType": "address",
          "name": "tokenAddress",
          "type": "address"
        }
      ],
      "stateMutability": "nonpayable",
      "type": "constructor"
    },
    {
      "anonymous": false,
      "inputs": [
        {
          "indexed": false,
          "internalType": "uint256",
          "name": "groupId",
          "type": "uint256"
        },
        {
          "indexed": false,
          "internalType": "uint256",
          "name": "expenseId",
          "type": "uint256"
        },
        {
          "indexed": false,
          "internalType": "address",
          "name": "requester",
          "type": "address"
        },
        {
          "indexed": false,
          "internalType": "uint256",
          "name": "amount",
          "type": "uint256"
        },
        {
          "indexed": false,
          "internalType": "string",
          "name": "description",
          "type": "string"
        },
        {
          "indexed": false,
          "internalType": "address[]",
          "name": "payers",
          "type": "address[]"
        },
        {
          "indexed": false,
          "internalType": "uint256",
          "name": "share",
          "type": "uint256"
        }
      ],
      "name": "ExpenseAdded",
      "type": "event"
    },
    {
      "anonymous": false,
      "inputs": [
        {
          "indexed": false,
          "internalType": "uint256",
          "name": "groupId",
          "type": "uint256"
        },
        {
          "indexed": false,
          "internalType": "address",
          "name": "owner",
          "type": "address"
        },
        {
          "indexed": false,
          "internalType": "address[]",
          "name": "members",
          "type": "address[]"
        },
        {
          "indexed": false,
          "internalType": "string",
          "name": "groupName",
          "type": "string"
        },
        {
          "indexed": false,
          "internalType": "string",
          "name": "description",
          "type": "string"
        },
        {
          "indexed": false,
          "internalType": "string",
          "name": "groupImage",
          "type": "string"
        }
      ],
      "name": "GroupCreated",
      "type": "event"
    },
    {
      "anonymous": false,
      "inputs": [
        {
          "indexed": false,
          "internalType": "uint256",
          "name": "groupId",
          "type": "uint256"
        },
        {
          "indexed": false,
          "internalType": "uint256",
          "name": "expenseId",
          "type": "uint256"
        },
        {
          "indexed": false,
          "internalType": "address",
          "name": "payer",
          "type": "address"
        },
        {
          "indexed": false,
          "internalType": "address",
          "name": "requester",
          "type": "address"
        },
        {
          "indexed": false,
          "internalType": "string",
          "name": "description",
          "type": "string"
        },
        {
          "indexed": false,
          "internalType": "uint256",
          "name": "share",
          "type": "uint256"
        }
      ],
      "name": "SplitPaid",
      "type": "event"
    },
    {
      "inputs": [],
      "name": "_groupCounter",
      "outputs": [
        {
          "internalType": "uint256",
          "name": "_value",
          "type": "uint256"
        }
      ],
      "stateMutability": "view",
      "type": "function"
    },
    {
      "inputs": [
        {
          "internalType": "uint256",
          "name": "_groupId",
          "type": "uint256"
        },
        {
          "internalType": "uint256",
          "name": "_amount",
          "type": "uint256"
        },
        {
          "internalType": "string",
          "name": "_description",
          "type": "string"
        }
      ],
      "name": "addExpense",
      "outputs": [],
      "stateMutability": "nonpayable",
      "type": "function"
    },
    {
      "inputs": [],
      "name": "celoUsd",
      "outputs": [
        {
          "internalType": "contract IERC20",
          "name": "",
          "type": "address"
        }
      ],
      "stateMutability": "view",
      "type": "function"
    },
    {
      "inputs": [
        {
          "internalType": "address[]",
          "name": "_members",
          "type": "address[]"
        },
        {
          "internalType": "string",
          "name": "_groupName",
          "type": "string"
        },
        {
          "internalType": "string",
          "name": "_description",
          "type": "string"
        },
        {
          "internalType": "string",
          "name": "_groupImage",
          "type": "string"
        }
      ],
      "name": "createGroup",
      "outputs": [],
      "stateMutability": "nonpayable",
      "type": "function"
    },
    {
      "inputs": [
        {
          "internalType": "uint256",
          "name": "",
          "type": "uint256"
        }
      ],
      "name": "expenses",
      "outputs": [
        {
          "internalType": "uint256",
          "name": "groupId",
          "type": "uint256"
        },
        {
          "internalType": "address",
          "name": "requester",
          "type": "address"
        },
        {
          "internalType": "uint256",
          "name": "amount",
          "type": "uint256"
        },
        {
          "internalType": "string",
          "name": "description",
          "type": "string"
        },
        {
          "internalType": "uint256",
          "name": "share",
          "type": "uint256"
        }
      ],
      "stateMutability": "view",
      "type": "function"
    },
    {
      "inputs": [
        {
          "internalType": "uint256",
          "name": "_groupId",
          "type": "uint256"
        }
      ],
      "name": "getGroupDetails",
      "outputs": [
        {
          "components": [
            {
              "internalType": "uint256",
              "name": "groupId",
              "type": "uint256"
            },
            {
              "internalType": "string",
              "name": "groupName",
              "type": "string"
            },
            {
              "internalType": "string",
              "name": "description",
              "type": "string"
            },
            {
              "internalType": "string",
              "name": "groupImage",
              "type": "string"
            },
            {
              "internalType": "address[]",
              "name": "members",
              "type": "address[]"
            }
          ],
          "internalType": "struct SplitMoney.MyGroups",
          "name": "",
          "type": "tuple"
        }
      ],
      "stateMutability": "view",
      "type": "function"
    },
    {
      "inputs": [
        {
          "internalType": "uint256",
          "name": "_groupId",
          "type": "uint256"
        }
      ],
      "name": "getGroupExpenses",
      "outputs": [
        {
          "components": [
            {
              "internalType": "uint256",
              "name": "groupId",
              "type": "uint256"
            },
            {
              "internalType": "address",
              "name": "requester",
              "type": "address"
            },
            {
              "internalType": "address[]",
              "name": "payers",
              "type": "address[]"
            },
            {
              "internalType": "uint256",
              "name": "amount",
              "type": "uint256"
            },
            {
              "internalType": "string",
              "name": "description",
              "type": "string"
            },
            {
              "internalType": "uint256",
              "name": "share",
              "type": "uint256"
            }
          ],
          "internalType": "struct SplitMoney.Expense[]",
          "name": "",
          "type": "tuple[]"
        }
      ],
      "stateMutability": "view",
      "type": "function"
    },
    {
      "inputs": [],
      "name": "getMyGroups",
      "outputs": [
        {
          "components": [
            {
              "internalType": "uint256",
              "name": "groupId",
              "type": "uint256"
            },
            {
              "internalType": "string",
              "name": "groupName",
              "type": "string"
            },
            {
              "internalType": "string",
              "name": "description",
              "type": "string"
            },
            {
              "internalType": "string",
              "name": "groupImage",
              "type": "string"
            },
            {
              "internalType": "address[]",
              "name": "members",
              "type": "address[]"
            }
          ],
          "internalType": "struct SplitMoney.MyGroups[]",
          "name": "",
          "type": "tuple[]"
        }
      ],
      "stateMutability": "view",
      "type": "function"
    },
    {
      "inputs": [
        {
          "internalType": "address",
          "name": "",
          "type": "address"
        },
        {
          "internalType": "uint256",
          "name": "",
          "type": "uint256"
        }
      ],
      "name": "isPaid",
      "outputs": [
        {
          "internalType": "bool",
          "name": "",
          "type": "bool"
        }
      ],
      "stateMutability": "view",
      "type": "function"
    },
    {
      "inputs": [
        {
          "internalType": "uint256",
          "name": "expenseId",
          "type": "uint256"
        }
      ],
      "name": "paySplit",
      "outputs": [],
      "stateMutability": "payable",
      "type": "function"
    },
    {
      "inputs": [],
      "name": "viewSplits",
      "outputs": [
        {
          "components": [
            {
              "internalType": "uint256",
              "name": "groupId",
              "type": "uint256"
            },
            {
              "internalType": "uint256",
              "name": "expenseIndex",
              "type": "uint256"
            },
            {
              "internalType": "address",
              "name": "requester",
              "type": "address"
            },
            {
              "internalType": "uint256",
              "name": "amount",
              "type": "uint256"
            },
            {
              "internalType": "string",
              "name": "description",
              "type": "string"
            }
          ],
          "internalType": "struct SplitMoney.ViewPendingPayments[]",
          "name": "",
          "type": "tuple[]"
        }
      ],
      "stateMutability": "view",
      "type": "function"
    }
  ],
  "transactionHash": "0x555614e0b76602ad38e0d7934df5d511afa74cf6ce605b504db54d89fa041af4",
  "args": [
    "0x874069fa1eb16d44d622f2e0ca25eea172369bc1"
  ],
  "numDeployments": 2,
  "solcInputHash": "65e5f2408f904da0039b5e8d9aa347ff",
  "bytecode": "0x60806040523480156200001157600080fd5b50604051620035b2380380620035b28339818101604052810190620000379190620000e8565b806000806101000a81548173ffffffffffffffffffffffffffffffffffffffff021916908373ffffffffffffffffffffffffffffffffffffffff160217905550506200011a565b600080fd5b600073ffffffffffffffffffffffffffffffffffffffff82169050919050565b6000620000b08262000083565b9050919050565b620000c281620000a3565b8114620000ce57600080fd5b50565b600081519050620000e281620000b7565b92915050565b6000602082840312156200010157620001006200007e565b5b60006200011184828501620000d1565b91505092915050565b613488806200012a6000396000f3fe60806040526004361061009c5760003560e01c80639de5e76a116100645780639de5e76a14610179578063af4afe0a146101b6578063b197e242146101f7578063cbcce4fa14610222578063d8528f051461025f578063f999f0271461028a5761009c565b8063500b136f146100a157806365ebc80c146100de57806383eb74281461010757806385c49124146101235780639b8665451461014e575b600080fd5b3480156100ad57600080fd5b506100c860048036038101906100c39190611e98565b6102b3565b6040516100d591906121a6565b60405180910390f35b3480156100ea57600080fd5b50610105600480360381019061010091906123f1565b610643565b005b610121600480360381019061011c9190611e98565b610824565b005b34801561012f57600080fd5b50610138610c7b565b6040516101459190612600565b60405180910390f35b34801561015a57600080fd5b50610163610fb5565b6040516101709190612631565b60405180910390f35b34801561018557600080fd5b506101a0600480360381019061019b9190611e98565b610fc1565b6040516101ad91906126d7565b60405180910390f35b3480156101c257600080fd5b506101dd60048036038101906101d89190611e98565b61126b565b6040516101ee959493929190612752565b60405180910390f35b34801561020357600080fd5b5061020c611359565b604051610219919061280b565b60405180910390f35b34801561022e57600080fd5b5061024960048036038101906102449190612826565b61137d565b6040516102569190612881565b60405180910390f35b34801561026b57600080fd5b506102746113ac565b60405161028191906129e9565b60405180910390f35b34801561029657600080fd5b506102b160048036038101906102ac9190612a0b565b61181c565b005b60606000805b60028054905081101561031457600281815481106102da576102d9612a7a565b5b90600052602060002090600602016000015484036103015781806102fd90612ad8565b9250505b808061030c90612ad8565b9150506102b9565b5060008167ffffffffffffffff811115610331576103306121cd565b5b60405190808252806020026020018201604052801561036a57816020015b610357611ce7565b81526020019060019003908161034f5790505b5090506000805b600280549050811015610637576002818154811061039257610391612a7a565b5b9060005260206000209060060201600001548603610624576040518060c00160405280600283815481106103c9576103c8612a7a565b5b9060005260206000209060060201600001548152602001600283815481106103f4576103f3612a7a565b5b906000526020600020906006020160010160009054906101000a900473ffffffffffffffffffffffffffffffffffffffff1673ffffffffffffffffffffffffffffffffffffffff1681526020016002838154811061045557610454612a7a565b5b90600052602060002090600602016002018054806020026020016040519081016040528092919081815260200182805480156104e657602002820191906000526020600020905b8160009054906101000a900473ffffffffffffffffffffffffffffffffffffffff1673ffffffffffffffffffffffffffffffffffffffff168152602001906001019080831161049c575b505050505081526020016002838154811061050457610503612a7a565b5b90600052602060002090600602016003015481526020016002838154811061052f5761052e612a7a565b5b9060005260206000209060060201600401805461054b90612b4f565b80601f016020809104026020016040519081016040528092919081815260200182805461057790612b4f565b80156105c45780601f10610599576101008083540402835291602001916105c4565b820191906000526020600020905b8154815290600101906020018083116105a757829003601f168201915b50505050508152602001600283815481106105e2576105e1612a7a565b5b90600052602060002090600602016005015481525083838151811061060a57610609612a7a565b5b6020026020010181905250818061062090612ad8565b9250505b808061062f90612ad8565b915050610371565b50819350505050919050565b6001845111610687576040517f08c379a000000000000000000000000000000000000000000000000000000000815260040161067e90612bcc565b60405180910390fd5b6106916001611cc3565b600061069d6001611cd9565b9050846003600083815260200190815260200160002060000190805190602001906106c9929190611d33565b50836003600083815260200190815260200160002060010190816106ed9190612d8e565b50826003600083815260200190815260200160002060020190816107119190612d8e565b50816003600083815260200190815260200160002060030190816107359190612d8e565b5060005b85518110156107db57600160036000848152602001908152602001600020600401600088848151811061076f5761076e612a7a565b5b602002602001015173ffffffffffffffffffffffffffffffffffffffff1673ffffffffffffffffffffffffffffffffffffffff16815260200190815260200160002060006101000a81548160ff02191690831515021790555080806107d390612ad8565b915050610739565b507f8b9ed8c71fb77fc68841ab7f82461c42c6861e17b67a28d253b9ebef3836d8a481338787878760405161081596959493929190612ecf565b60405180910390a15050505050565b600280549050811061086b576040517f08c379a000000000000000000000000000000000000000000000000000000000815260040161086290612f98565b60405180910390fd5b60001515600460003373ffffffffffffffffffffffffffffffffffffffff1673ffffffffffffffffffffffffffffffffffffffff168152602001908152602001600020600083815260200190815260200160002060009054906101000a900460ff1615151461090f576040517f08c379a000000000000000000000000000000000000000000000000000000000815260040161090690613004565b60405180910390fd5b6002818154811061092357610922612a7a565b5b90600052602060002090600602016005015460008054906101000a900473ffffffffffffffffffffffffffffffffffffffff1673ffffffffffffffffffffffffffffffffffffffff166370a08231336040518263ffffffff1660e01b815260040161098e9190613024565b602060405180830381865afa1580156109ab573d6000803e3d6000fd5b505050506040513d601f19601f820116820180604052508101906109cf9190613054565b1015610a10576040517f08c379a0000000000000000000000000000000000000000000000000000000008152600401610a07906130cd565b60405180910390fd5b60008054906101000a900473ffffffffffffffffffffffffffffffffffffffff1673ffffffffffffffffffffffffffffffffffffffff166323b872dd3360028481548110610a6157610a60612a7a565b5b906000526020600020906006020160010160009054906101000a900473ffffffffffffffffffffffffffffffffffffffff1660028581548110610aa757610aa6612a7a565b5b9060005260206000209060060201600501546040518463ffffffff1660e01b8152600401610ad7939291906130ed565b6020604051808303816000875af1158015610af6573d6000803e3d6000fd5b505050506040513d601f19601f82011682018060405250810190610b1a9190613150565b506001600460003373ffffffffffffffffffffffffffffffffffffffff1673ffffffffffffffffffffffffffffffffffffffff168152602001908152602001600020600083815260200190815260200160002060006101000a81548160ff0219169083151502179055507f7eb494d4272c20eff98e6915d76418045d757eb0b1a7a5dd51133ada5a58976660028281548110610bb957610bb8612a7a565b5b906000526020600020906006020160000154823360028581548110610be157610be0612a7a565b5b906000526020600020906006020160010160009054906101000a900473ffffffffffffffffffffffffffffffffffffffff1660028681548110610c2757610c26612a7a565b5b906000526020600020906006020160040160028781548110610c4c57610c4b612a7a565b5b906000526020600020906006020160050154604051610c7096959493929190613201565b60405180910390a150565b606060003390506000805b600280549050811015610d1e5760001515600460008573ffffffffffffffffffffffffffffffffffffffff1673ffffffffffffffffffffffffffffffffffffffff168152602001908152602001600020600083815260200190815260200160002060009054906101000a900460ff16151503610d0b578180610d0790612ad8565b9250505b8080610d1690612ad8565b915050610c86565b5060008167ffffffffffffffff811115610d3b57610d3a6121cd565b5b604051908082528060200260200182016040528015610d7457816020015b610d61611dbd565b815260200190600190039081610d595790505b5090506000805b600280549050811015610faa5760001515600460008773ffffffffffffffffffffffffffffffffffffffff1673ffffffffffffffffffffffffffffffffffffffff168152602001908152602001600020600083815260200190815260200160002060009054906101000a900460ff16151503610f97576040518060a0016040528060028381548110610e1057610e0f612a7a565b5b906000526020600020906006020160000154815260200182815260200160028381548110610e4157610e40612a7a565b5b906000526020600020906006020160010160009054906101000a900473ffffffffffffffffffffffffffffffffffffffff1673ffffffffffffffffffffffffffffffffffffffff16815260200160028381548110610ea257610ea1612a7a565b5b906000526020600020906006020160050154815260200160028381548110610ecd57610ecc612a7a565b5b90600052602060002090600602016004018054610ee990612b4f565b80601f0160208091040260200160405190810160405280929190818152602001828054610f1590612b4f565b8015610f625780601f10610f3757610100808354040283529160200191610f62565b820191906000526020600020905b815481529060010190602001808311610f4557829003601f168201915b5050505050815250838381518110610f7d57610f7c612a7a565b5b60200260200101819052508180610f9390612ad8565b9250505b8080610fa290612ad8565b915050610d7b565b508194505050505090565b60018060000154905081565b610fc9611e02565b6040518060a00160405280838152602001600360008581526020019081526020016000206001018054610ffb90612b4f565b80601f016020809104026020016040519081016040528092919081815260200182805461102790612b4f565b80156110745780601f1061104957610100808354040283529160200191611074565b820191906000526020600020905b81548152906001019060200180831161105757829003601f168201915b5050505050815260200160036000858152602001908152602001600020600201805461109f90612b4f565b80601f01602080910402602001604051908101604052809291908181526020018280546110cb90612b4f565b80156111185780601f106110ed57610100808354040283529160200191611118565b820191906000526020600020905b8154815290600101906020018083116110fb57829003601f168201915b5050505050815260200160036000858152602001908152602001600020600301805461114390612b4f565b80601f016020809104026020016040519081016040528092919081815260200182805461116f90612b4f565b80156111bc5780601f10611191576101008083540402835291602001916111bc565b820191906000526020600020905b81548152906001019060200180831161119f57829003601f168201915b505050505081526020016003600085815260200190815260200160002060000180548060200260200160405190810160405280929190818152602001828054801561125c57602002820191906000526020600020905b8160009054906101000a900473ffffffffffffffffffffffffffffffffffffffff1673ffffffffffffffffffffffffffffffffffffffff1681526020019060010190808311611212575b50505050508152509050919050565b6002818154811061127b57600080fd5b90600052602060002090600602016000915090508060000154908060010160009054906101000a900473ffffffffffffffffffffffffffffffffffffffff16908060030154908060040180546112d090612b4f565b80601f01602080910402602001604051908101604052809291908181526020018280546112fc90612b4f565b80156113495780601f1061131e57610100808354040283529160200191611349565b820191906000526020600020905b81548152906001019060200180831161132c57829003601f168201915b5050505050908060050154905085565b60008054906101000a900473ffffffffffffffffffffffffffffffffffffffff1681565b60046020528160005260406000206020528060005260406000206000915091509054906101000a900460ff1681565b60606000339050600080600190505b6113c56001611cd9565b811161145957600115156003600083815260200190815260200160002060040160008573ffffffffffffffffffffffffffffffffffffffff1673ffffffffffffffffffffffffffffffffffffffff16815260200190815260200160002060009054906101000a900460ff1615150361144657818061144290612ad8565b9250505b808061145190612ad8565b9150506113bb565b5060008167ffffffffffffffff811115611476576114756121cd565b5b6040519080825280602002602001820160405280156114af57816020015b61149c611e02565b8152602001906001900390816114945790505b509050600080600190505b6114c46001611cd9565b811161181157600115156003600083815260200190815260200160002060040160008773ffffffffffffffffffffffffffffffffffffffff1673ffffffffffffffffffffffffffffffffffffffff16815260200190815260200160002060009054906101000a900460ff161515036117f0576040518060a0016040528082815260200160036000848152602001908152602001600020600101805461156890612b4f565b80601f016020809104026020016040519081016040528092919081815260200182805461159490612b4f565b80156115e15780601f106115b6576101008083540402835291602001916115e1565b820191906000526020600020905b8154815290600101906020018083116115c457829003601f168201915b5050505050815260200160036000848152602001908152602001600020600201805461160c90612b4f565b80601f016020809104026020016040519081016040528092919081815260200182805461163890612b4f565b80156116855780601f1061165a57610100808354040283529160200191611685565b820191906000526020600020905b81548152906001019060200180831161166857829003601f168201915b505050505081526020016003600084815260200190815260200160002060030180546116b090612b4f565b80601f01602080910402602001604051908101604052809291908181526020018280546116dc90612b4f565b80156117295780601f106116fe57610100808354040283529160200191611729565b820191906000526020600020905b81548152906001019060200180831161170c57829003601f168201915b50505050508152602001600360008481526020019081526020016000206000018054806020026020016040519081016040528092919081815260200182805480156117c957602002820191906000526020600020905b8160009054906101000a900473ffffffffffffffffffffffffffffffffffffffff1673ffffffffffffffffffffffffffffffffffffffff168152602001906001019080831161177f575b50505050508152508383815181106117e4576117e3612a7a565b5b60200260200101819052505b81806117fb90612ad8565b925050808061180990612ad8565b9150506114ba565b508194505050505090565b6000830361185f576040517f08c379a0000000000000000000000000000000000000000000000000000000008152600401611856906132b5565b60405180910390fd5b600082116118a2576040517f08c379a000000000000000000000000000000000000000000000000000000000815260040161189990613321565b60405180910390fd5b60006003600085815260200190815260200160002060000180549050905060006003600086815260200190815260200160002060000180548060200260200160405190810160405280929190818152602001828054801561195857602002820191906000526020600020905b8160009054906101000a900473ffffffffffffffffffffffffffffffffffffffff1673ffffffffffffffffffffffffffffffffffffffff168152602001906001019080831161190e575b505050505090506000828561196d9190613370565b905060026040518060c001604052808881526020013373ffffffffffffffffffffffffffffffffffffffff1681526020018481526020018781526020018681526020018381525090806001815401808255809150506001900390600052602060002090600602016000909190919091506000820151816000015560208201518160010160006101000a81548173ffffffffffffffffffffffffffffffffffffffff021916908373ffffffffffffffffffffffffffffffffffffffff1602179055506040820151816002019080519060200190611a4a929190611d33565b50606082015181600301556080820151816004019081611a6a9190612d8e565b5060a08201518160050155505060005b83811015611c665760026001600280549050611a9691906133a1565b81548110611aa757611aa6612a7a565b5b906000526020600020906006020160010160009054906101000a900473ffffffffffffffffffffffffffffffffffffffff1673ffffffffffffffffffffffffffffffffffffffff16838281518110611b0257611b01612a7a565b5b602002602001015173ffffffffffffffffffffffffffffffffffffffff1603611bbe57600160046000858481518110611b3e57611b3d612a7a565b5b602002602001015173ffffffffffffffffffffffffffffffffffffffff1673ffffffffffffffffffffffffffffffffffffffff16815260200190815260200160002060006001600280549050611b9491906133a1565b815260200190815260200160002060006101000a81548160ff021916908315150217905550611c53565b600060046000858481518110611bd757611bd6612a7a565b5b602002602001015173ffffffffffffffffffffffffffffffffffffffff1673ffffffffffffffffffffffffffffffffffffffff16815260200190815260200160002060006001600280549050611c2d91906133a1565b815260200190815260200160002060006101000a81548160ff0219169083151502179055505b8080611c5e90612ad8565b915050611a7a565b507fc837e29b96d18b821d15a9d2e023ba3ab496c4440cbe1f91921df760120e1104866001600280549050611c9b91906133a1565b3388888787604051611cb397969594939291906133d5565b60405180910390a1505050505050565b6001816000016000828254019250508190555050565b600081600001549050919050565b6040518060c0016040528060008152602001600073ffffffffffffffffffffffffffffffffffffffff168152602001606081526020016000815260200160608152602001600081525090565b828054828255906000526020600020908101928215611dac579160200282015b82811115611dab5782518260006101000a81548173ffffffffffffffffffffffffffffffffffffffff021916908373ffffffffffffffffffffffffffffffffffffffff16021790555091602001919060010190611d53565b5b509050611db99190611e31565b5090565b6040518060a001604052806000815260200160008152602001600073ffffffffffffffffffffffffffffffffffffffff16815260200160008152602001606081525090565b6040518060a0016040528060008152602001606081526020016060815260200160608152602001606081525090565b5b80821115611e4a576000816000905550600101611e32565b5090565b6000604051905090565b600080fd5b600080fd5b6000819050919050565b611e7581611e62565b8114611e8057600080fd5b50565b600081359050611e9281611e6c565b92915050565b600060208284031215611eae57611ead611e58565b5b6000611ebc84828501611e83565b91505092915050565b600081519050919050565b600082825260208201905092915050565b6000819050602082019050919050565b611efa81611e62565b82525050565b600073ffffffffffffffffffffffffffffffffffffffff82169050919050565b6000611f2b82611f00565b9050919050565b611f3b81611f20565b82525050565b600081519050919050565b600082825260208201905092915050565b6000819050602082019050919050565b6000611f798383611f32565b60208301905092915050565b6000602082019050919050565b6000611f9d82611f41565b611fa78185611f4c565b9350611fb283611f5d565b8060005b83811015611fe3578151611fca8882611f6d565b9750611fd583611f85565b925050600181019050611fb6565b5085935050505092915050565b600081519050919050565b600082825260208201905092915050565b60005b8381101561202a57808201518184015260208101905061200f565b60008484015250505050565b6000601f19601f8301169050919050565b600061205282611ff0565b61205c8185611ffb565b935061206c81856020860161200c565b61207581612036565b840191505092915050565b600060c0830160008301516120986000860182611ef1565b5060208301516120ab6020860182611f32565b50604083015184820360408601526120c38282611f92565b91505060608301516120d86060860182611ef1565b50608083015184820360808601526120f08282612047565b91505060a083015161210560a0860182611ef1565b508091505092915050565b600061211c8383612080565b905092915050565b6000602082019050919050565b600061213c82611ec5565b6121468185611ed0565b93508360208202850161215885611ee1565b8060005b8581101561219457848403895281516121758582612110565b945061218083612124565b925060208a0199505060018101905061215c565b50829750879550505050505092915050565b600060208201905081810360008301526121c08184612131565b905092915050565b600080fd5b7f4e487b7100000000000000000000000000000000000000000000000000000000600052604160045260246000fd5b61220582612036565b810181811067ffffffffffffffff82111715612224576122236121cd565b5b80604052505050565b6000612237611e4e565b905061224382826121fc565b919050565b600067ffffffffffffffff821115612263576122626121cd565b5b602082029050602081019050919050565b600080fd5b61228281611f20565b811461228d57600080fd5b50565b60008135905061229f81612279565b92915050565b60006122b86122b384612248565b61222d565b905080838252602082019050602084028301858111156122db576122da612274565b5b835b8181101561230457806122f08882612290565b8452602084019350506020810190506122dd565b5050509392505050565b600082601f830112612323576123226121c8565b5b81356123338482602086016122a5565b91505092915050565b600080fd5b600067ffffffffffffffff82111561235c5761235b6121cd565b5b61236582612036565b9050602081019050919050565b82818337600083830152505050565b600061239461238f84612341565b61222d565b9050828152602081018484840111156123b0576123af61233c565b5b6123bb848285612372565b509392505050565b600082601f8301126123d8576123d76121c8565b5b81356123e8848260208601612381565b91505092915050565b6000806000806080858703121561240b5761240a611e58565b5b600085013567ffffffffffffffff81111561242957612428611e5d565b5b6124358782880161230e565b945050602085013567ffffffffffffffff81111561245657612455611e5d565b5b612462878288016123c3565b935050604085013567ffffffffffffffff81111561248357612482611e5d565b5b61248f878288016123c3565b925050606085013567ffffffffffffffff8111156124b0576124af611e5d565b5b6124bc878288016123c3565b91505092959194509250565b600081519050919050565b600082825260208201905092915050565b6000819050602082019050919050565b600060a08301600083015161250c6000860182611ef1565b50602083015161251f6020860182611ef1565b5060408301516125326040860182611f32565b5060608301516125456060860182611ef1565b506080830151848203608086015261255d8282612047565b9150508091505092915050565b600061257683836124f4565b905092915050565b6000602082019050919050565b6000612596826124c8565b6125a081856124d3565b9350836020820285016125b2856124e4565b8060005b858110156125ee57848403895281516125cf858261256a565b94506125da8361257e565b925060208a019950506001810190506125b6565b50829750879550505050505092915050565b6000602082019050818103600083015261261a818461258b565b905092915050565b61262b81611e62565b82525050565b60006020820190506126466000830184612622565b92915050565b600060a0830160008301516126646000860182611ef1565b506020830151848203602086015261267c8282612047565b915050604083015184820360408601526126968282612047565b915050606083015184820360608601526126b08282612047565b915050608083015184820360808601526126ca8282611f92565b9150508091505092915050565b600060208201905081810360008301526126f1818461264c565b905092915050565b61270281611f20565b82525050565b600082825260208201905092915050565b600061272482611ff0565b61272e8185612708565b935061273e81856020860161200c565b61274781612036565b840191505092915050565b600060a0820190506127676000830188612622565b61277460208301876126f9565b6127816040830186612622565b81810360608301526127938185612719565b90506127a26080830184612622565b9695505050505050565b6000819050919050565b60006127d16127cc6127c784611f00565b6127ac565b611f00565b9050919050565b60006127e3826127b6565b9050919050565b60006127f5826127d8565b9050919050565b612805816127ea565b82525050565b600060208201905061282060008301846127fc565b92915050565b6000806040838503121561283d5761283c611e58565b5b600061284b85828601612290565b925050602061285c85828601611e83565b9150509250929050565b60008115159050919050565b61287b81612866565b82525050565b60006020820190506128966000830184612872565b92915050565b600081519050919050565b600082825260208201905092915050565b6000819050602082019050919050565b600060a0830160008301516128e06000860182611ef1565b50602083015184820360208601526128f88282612047565b915050604083015184820360408601526129128282612047565b9150506060830151848203606086015261292c8282612047565b915050608083015184820360808601526129468282611f92565b9150508091505092915050565b600061295f83836128c8565b905092915050565b6000602082019050919050565b600061297f8261289c565b61298981856128a7565b93508360208202850161299b856128b8565b8060005b858110156129d757848403895281516129b88582612953565b94506129c383612967565b925060208a0199505060018101905061299f565b50829750879550505050505092915050565b60006020820190508181036000830152612a038184612974565b905092915050565b600080600060608486031215612a2457612a23611e58565b5b6000612a3286828701611e83565b9350506020612a4386828701611e83565b925050604084013567ffffffffffffffff811115612a6457612a63611e5d565b5b612a70868287016123c3565b9150509250925092565b7f4e487b7100000000000000000000000000000000000000000000000000000000600052603260045260246000fd5b7f4e487b7100000000000000000000000000000000000000000000000000000000600052601160045260246000fd5b6000612ae382611e62565b91507fffffffffffffffffffffffffffffffffffffffffffffffffffffffffffffffff8203612b1557612b14612aa9565b5b600182019050919050565b7f4e487b7100000000000000000000000000000000000000000000000000000000600052602260045260246000fd5b60006002820490506001821680612b6757607f821691505b602082108103612b7a57612b79612b20565b5b50919050565b7f4174206c656173742074776f206d656d62657273206973207265717569726564600082015250565b6000612bb6602083612708565b9150612bc182612b80565b602082019050919050565b60006020820190508181036000830152612be581612ba9565b9050919050565b60008190508160005260206000209050919050565b60006020601f8301049050919050565b600082821b905092915050565b600060088302612c4e7fffffffffffffffffffffffffffffffffffffffffffffffffffffffffffffffff82612c11565b612c588683612c11565b95508019841693508086168417925050509392505050565b6000612c8b612c86612c8184611e62565b6127ac565b611e62565b9050919050565b6000819050919050565b612ca583612c70565b612cb9612cb182612c92565b848454612c1e565b825550505050565b600090565b612cce612cc1565b612cd9818484612c9c565b505050565b5b81811015612cfd57612cf2600082612cc6565b600181019050612cdf565b5050565b601f821115612d4257612d1381612bec565b612d1c84612c01565b81016020851015612d2b578190505b612d3f612d3785612c01565b830182612cde565b50505b505050565b600082821c905092915050565b6000612d6560001984600802612d47565b1980831691505092915050565b6000612d7e8383612d54565b9150826002028217905092915050565b612d9782611ff0565b67ffffffffffffffff811115612db057612daf6121cd565b5b612dba8254612b4f565b612dc5828285612d01565b600060209050601f831160018114612df85760008415612de6578287015190505b612df08582612d72565b865550612e58565b601f198416612e0686612bec565b60005b82811015612e2e57848901518255600182019150602085019450602081019050612e09565b86831015612e4b5784890151612e47601f891682612d54565b8355505b6001600288020188555050505b505050505050565b600082825260208201905092915050565b6000612e7c82611f41565b612e868185612e60565b9350612e9183611f5d565b8060005b83811015612ec2578151612ea98882611f6d565b9750612eb483611f85565b925050600181019050612e95565b5085935050505092915050565b600060c082019050612ee46000830189612622565b612ef160208301886126f9565b8181036040830152612f038187612e71565b90508181036060830152612f178186612719565b90508181036080830152612f2b8185612719565b905081810360a0830152612f3f8184612719565b9050979650505050505050565b7f496e76616c696420657870656e73652069640000000000000000000000000000600082015250565b6000612f82601283612708565b9150612f8d82612f4c565b602082019050919050565b60006020820190508181036000830152612fb181612f75565b9050919050565b7f416c726561647920506169640000000000000000000000000000000000000000600082015250565b6000612fee600c83612708565b9150612ff982612fb8565b602082019050919050565b6000602082019050818103600083015261301d81612fe1565b9050919050565b600060208201905061303960008301846126f9565b92915050565b60008151905061304e81611e6c565b92915050565b60006020828403121561306a57613069611e58565b5b60006130788482850161303f565b91505092915050565b7f496e73756666696369656e742042616c616e6365000000000000000000000000600082015250565b60006130b7601483612708565b91506130c282613081565b602082019050919050565b600060208201905081810360008301526130e6816130aa565b9050919050565b600060608201905061310260008301866126f9565b61310f60208301856126f9565b61311c6040830184612622565b949350505050565b61312d81612866565b811461313857600080fd5b50565b60008151905061314a81613124565b92915050565b60006020828403121561316657613165611e58565b5b60006131748482850161313b565b91505092915050565b6000815461318a81612b4f565b6131948186612708565b945060018216600081146131af57600181146131c5576131f8565b60ff1983168652811515602002860193506131f8565b6131ce85612bec565b60005b838110156131f0578154818901526001820191506020810190506131d1565b808801955050505b50505092915050565b600060c0820190506132166000830189612622565b6132236020830188612622565b61323060408301876126f9565b61323d60608301866126f9565b818103608083015261324f818561317d565b905061325e60a0830184612622565b979650505050505050565b7f47726f75702049442063616e6e6f74206265207a65726f000000000000000000600082015250565b600061329f601783612708565b91506132aa82613269565b602082019050919050565b600060208201905081810360008301526132ce81613292565b9050919050565b7f416d6f756e74206d7573742062652067726561746572207468616e2030000000600082015250565b600061330b601d83612708565b9150613316826132d5565b602082019050919050565b6000602082019050818103600083015261333a816132fe565b9050919050565b7f4e487b7100000000000000000000000000000000000000000000000000000000600052601260045260246000fd5b600061337b82611e62565b915061338683611e62565b92508261339657613395613341565b5b828204905092915050565b60006133ac82611e62565b91506133b783611e62565b92508282039050818111156133cf576133ce612aa9565b5b92915050565b600060e0820190506133ea600083018a612622565b6133f76020830189612622565b61340460408301886126f9565b6134116060830187612622565b81810360808301526134238186612719565b905081810360a08301526134378185612e71565b905061344660c0830184612622565b9897505050505050505056fea26469706673582212209adffe3c436c927742384505638e480d8968a0e78d81394023c502e84c19b95764736f6c63430008130033",
  "devdoc": {
    "kind": "dev",
    "methods": {},
    "version": 1
  },
  "userdoc": {
    "kind": "user",
    "methods": {},
    "version": 1
  },
  "storageLayout": {
    "storage": [
      {
        "astId": 1359,
        "contract": "contracts/SplitMoney.sol:SplitMoney",
        "label": "celoUsd",
        "offset": 0,
        "slot": "0",
        "type": "t_contract(IERC20)77"
      },
      {
        "astId": 1366,
        "contract": "contracts/SplitMoney.sol:SplitMoney",
        "label": "_groupCounter",
        "offset": 0,
        "slot": "1",
        "type": "t_struct(Counter)83_storage"
      },
      {
        "astId": 1433,
        "contract": "contracts/SplitMoney.sol:SplitMoney",
        "label": "expenses",
        "offset": 0,
        "slot": "2",
        "type": "t_array(t_struct(Expense)1392_storage)dyn_storage"
      },
      {
        "astId": 1438,
        "contract": "contracts/SplitMoney.sol:SplitMoney",
        "label": "GroupListing",
        "offset": 0,
        "slot": "3",
        "type": "t_mapping(t_uint256,t_struct(Group)1406_storage)"
      },
      {
        "astId": 1444,
        "contract": "contracts/SplitMoney.sol:SplitMoney",
        "label": "isPaid",
        "offset": 0,
        "slot": "4",
        "type": "t_mapping(t_address,t_mapping(t_uint256,t_bool))"
      }
    ],
    "types": {
      "t_address": {
        "encoding": "inplace",
        "label": "address",
        "numberOfBytes": "20"
      },
      "t_array(t_address)dyn_storage": {
        "base": "t_address",
        "encoding": "dynamic_array",
        "label": "address[]",
        "numberOfBytes": "32"
      },
      "t_array(t_struct(Expense)1392_storage)dyn_storage": {
        "base": "t_struct(Expense)1392_storage",
        "encoding": "dynamic_array",
        "label": "struct SplitMoney.Expense[]",
        "numberOfBytes": "32"
      },
      "t_bool": {
        "encoding": "inplace",
        "label": "bool",
        "numberOfBytes": "1"
      },
      "t_contract(IERC20)77": {
        "encoding": "inplace",
        "label": "contract IERC20",
        "numberOfBytes": "20"
      },
      "t_mapping(t_address,t_bool)": {
        "encoding": "mapping",
        "key": "t_address",
        "label": "mapping(address => bool)",
        "numberOfBytes": "32",
        "value": "t_bool"
      },
      "t_mapping(t_address,t_mapping(t_uint256,t_bool))": {
        "encoding": "mapping",
        "key": "t_address",
        "label": "mapping(address => mapping(uint256 => bool))",
        "numberOfBytes": "32",
        "value": "t_mapping(t_uint256,t_bool)"
      },
      "t_mapping(t_uint256,t_bool)": {
        "encoding": "mapping",
        "key": "t_uint256",
        "label": "mapping(uint256 => bool)",
        "numberOfBytes": "32",
        "value": "t_bool"
      },
      "t_mapping(t_uint256,t_struct(Group)1406_storage)": {
        "encoding": "mapping",
        "key": "t_uint256",
        "label": "mapping(uint256 => struct SplitMoney.Group)",
        "numberOfBytes": "32",
        "value": "t_struct(Group)1406_storage"
      },
      "t_string_storage": {
        "encoding": "bytes",
        "label": "string",
        "numberOfBytes": "32"
      },
      "t_struct(Counter)83_storage": {
        "encoding": "inplace",
        "label": "struct Counters.Counter",
        "members": [
          {
            "astId": 82,
            "contract": "contracts/SplitMoney.sol:SplitMoney",
            "label": "_value",
            "offset": 0,
            "slot": "0",
            "type": "t_uint256"
          }
        ],
        "numberOfBytes": "32"
      },
      "t_struct(Expense)1392_storage": {
        "encoding": "inplace",
        "label": "struct SplitMoney.Expense",
        "members": [
          {
            "astId": 1380,
            "contract": "contracts/SplitMoney.sol:SplitMoney",
            "label": "groupId",
            "offset": 0,
            "slot": "0",
            "type": "t_uint256"
          },
          {
            "astId": 1382,
            "contract": "contracts/SplitMoney.sol:SplitMoney",
            "label": "requester",
            "offset": 0,
            "slot": "1",
            "type": "t_address"
          },
          {
            "astId": 1385,
            "contract": "contracts/SplitMoney.sol:SplitMoney",
            "label": "payers",
            "offset": 0,
            "slot": "2",
            "type": "t_array(t_address)dyn_storage"
          },
          {
            "astId": 1387,
            "contract": "contracts/SplitMoney.sol:SplitMoney",
            "label": "amount",
            "offset": 0,
            "slot": "3",
            "type": "t_uint256"
          },
          {
            "astId": 1389,
            "contract": "contracts/SplitMoney.sol:SplitMoney",
            "label": "description",
            "offset": 0,
            "slot": "4",
            "type": "t_string_storage"
          },
          {
            "astId": 1391,
            "contract": "contracts/SplitMoney.sol:SplitMoney",
            "label": "share",
            "offset": 0,
            "slot": "5",
            "type": "t_uint256"
          }
        ],
        "numberOfBytes": "192"
      },
      "t_struct(Group)1406_storage": {
        "encoding": "inplace",
        "label": "struct SplitMoney.Group",
        "members": [
          {
            "astId": 1395,
            "contract": "contracts/SplitMoney.sol:SplitMoney",
            "label": "members",
            "offset": 0,
            "slot": "0",
            "type": "t_array(t_address)dyn_storage"
          },
          {
            "astId": 1397,
            "contract": "contracts/SplitMoney.sol:SplitMoney",
            "label": "groupName",
            "offset": 0,
            "slot": "1",
            "type": "t_string_storage"
          },
          {
            "astId": 1399,
            "contract": "contracts/SplitMoney.sol:SplitMoney",
            "label": "description",
            "offset": 0,
            "slot": "2",
            "type": "t_string_storage"
          },
          {
            "astId": 1401,
            "contract": "contracts/SplitMoney.sol:SplitMoney",
            "label": "groupImage",
            "offset": 0,
            "slot": "3",
            "type": "t_string_storage"
          },
          {
            "astId": 1405,
            "contract": "contracts/SplitMoney.sol:SplitMoney",
            "label": "isMember",
            "offset": 0,
            "slot": "4",
            "type": "t_mapping(t_address,t_bool)"
          }
        ],
        "numberOfBytes": "160"
      },
      "t_uint256": {
        "encoding": "inplace",
        "label": "uint256",
        "numberOfBytes": "32"
      }
    }
  }
}